:020000040800F2
:10000000943701202D080008990800089908000875
:1000100099080008990800089908000800000000E5
:100020000000000000000000000000009908000827
:1000300099080008000000009908000899080008C5
:10004000990800089908000899080008990800080C
:1000500099080008990800089908000899080008FC
:1000600099080008990800089908000899080008EC
:1000700099080008990800089908000899080008DC
:1000800099080008990800089908000899080008CC
:1000900099080008990800089908000899080008BC
:1000A00099080008990800089908000899080008AC
:1000B0000518000899080008990800089908000820
:1000C000990800089908000899080008990800088C
:1000D000990800089908000899080008990800087C
:1000E000990800089908000899080008990800086C
:1000F000990800089908000899080008990800085C
:10010000990800089908000899080008990800084B
:10011000990800089908000899080008990800083B
:10012000990800089908000899080008990800082B
:10013000990800089908000899080008990800081B
:10014000990800089908000899080008990800080B
:10015000CD180008990800089908000899080008B7
:1001600099080008990800089908000899080008EB
:1001700099080008990800089908000899080008DB
:10018000990800089908000880B58EB000AFF860A3
:10019000B9607A603B607B687B63FA687B689A42EF
:1001A00001DCFB687B63FA687B6BD31AFB607A68BF
:1001B0007B6BD31A7B603B683B63BA683B689A42AF
:1001C00001DCBB683B63BA683B6BD31ABB603A681F
:1001D0003B6BD31A3B60FA687B68D31AFB62FB6AFD
:1001E000002B03DC7A68FB68D31AFB62BA683B68B1
:1001F000D31ABB62BB6A002B03DC3A68BB68D31A14
:10020000BB62FA6ABB6A9A4239DDBB6A06EE903A73
:10021000B8EEE67AFB6A06EE903AF8EEE67AC7EEBA
:10022000277AC7ED077A00237B6223E07B6A07EE1B
:10023000903AB8EEE77AD7ED077A67EE277AFDEEC7
:10024000E77A17EE903ABB617B6B9AB27B6A9BB2FE
:10025000134499B23B6B9AB2BB699BB213449AB2F6
:1002600097F84830084611461A4601F063F97B6A50
:1002700001337B627A6AFB6A9A42D7DB38E0FB6A19
:1002800006EE903AB8EEE67ABB6A06EE903AF8EEE1
:10029000E67AC7EE277AC7ED057A00233B6223E0B2
:1002A0003B6A07EE903AB8EEE77AD7ED057A67EE4B
:1002B000277AFDEEE77A17EE903A3B617B6B9AB2B4
:1002C0003B6A9BB2134499B23B6B9AB23B699BB2B7
:1002D00013449AB297F84830084611461A4601F07E
:1002E00029F93B6A01333B623A6ABB6A9A42D7DB1F
:1002F0003837BD4680BD00BF80B58AB000AF78609A
:10030000396000237B6200233B620023FB610023F2
:10031000BB617B681B8A9BB27B627B6A23F4405380
:100320007B623B68DB887A6A13437B627B6A9AB2A2
:100330007B681A827B689B899BB27B627B6A23F411
:10034000B05323F00C037B623B689A883B681B899F
:1003500013439AB23B685B8913439BB27A6A134397
:100360007B627B6A9AB27B689A817B689B8A9BB22C
:100370007B627B6A23F440737B623B689B897A6A69
:1003800013437B627B6A9AB27B689A8207F1080307
:10039000184600F065FB7A68314B9A4203D07A68C0
:1003A000304B9A4202D17B693B6201E03B693B6280
:1003B0007B689B899BB29BB21BB2002B0CDA3A6A1A
:1003C00013469B0013449A001A443B681B685B0069
:1003D000B2FBF3F3FB610BE03A6A13469B00134454
:1003E0009A001A443B681B689B00B2FBF3F3FB6165
:1003F000FA691D4BA3FB02135B091B017B627B6A3D
:100400001B09642202FB03F3FA69D31ABB617B6800
:100410009B899BB29BB21BB2002B0DDABB69DB0040
:1004200003F13202104BA3FB02135B0903F0070335
:100430007A6A13437B620CE0BB691B0103F1320251
:10044000094BA3FB02135B0903F00F037A6A134302
:100450007B627B6A9AB27B681A812837BD4680BD71
:1004600000100140001401401F85EB5180B483B09F
:1004700000AF78600B46FB70FB78002B08D07B68E0
:100480009B899BB243F400539AB27B689A8107E040
:100490007B689B899BB223F400539AB27B689A8154
:1004A0000C37BD465DF8047B704700BFF0B587B0E0
:1004B00004AF3C4B1B78002B70D00023FB7168E02D
:1004C000FB79394A9B01134438339B79012B2CD19A
:1004D000FB799A01344B1344591CFB79324A9B0136
:1004E00013441A78FB7930489B01034434331B686A
:1004F000F8792D4C8001204438300468F8792A4D71
:10050000800128443830007900940190FF20029047
:1005100008461146002200F049F8FB79224A9B0167
:100520001344383300229A7130E0FB799A011E4B54
:100530001344591CFB791C4A9B0113441A78FB791C
:1005400019489B01034434331B68F879164C800129
:10055000204438300568F879134C80012044383045
:100560000479F879104E8001304438304079009594
:100570000194029008461146002200F017F8FB791A
:10058000094A9B011344383301229A71FB790133E4
:10059000FB71044B1B78FA799A4291D30C37BD4614
:1005A000F0BD00BF10000020142D012080B58CB0DC
:1005B00000AFF8607B600B46FB721346BB720023F2
:1005C00087F82F30002387F82E300023BB62BB7AD8
:1005D000022B57D18F4B1B788F4A9B011344383322
:1005E00001229A718B4B1B788B4A9B011344383341
:1005F00097F840205A71874B1B78874A9B01134418
:10060000FA7A1A70834B1B78834A9B011344343364
:100610007A681A607F4B1B787F4A9B0113443833FA
:10062000BA6B1A607B4B1B787B4A9B0113443833AF
:1006300097F83C201A71002387F8233018E0754B97
:100640001B78184697F82330FA68127872498001AF
:1006500003440B445A70FB680133FB6097F8233066
:10066000013387F8233097F82330322B00D103E091
:10067000FB681B78002BE2D1664B1B780133DAB2A2
:10068000644B1A70FB7A012B06D0022B07D0002B8B
:1006900008D1624B7B6205E0614B7B6202E0614BFB
:1006A0007B6200BF97F83C30092B03D80A2387F8F8
:1006B0003C3006E097F83C30282B02D9282387F8F5
:1006C0003C3097F83C304FF4C86292FBF3F307EEEE
:1006D000103AF8EEC77AC7ED077A97ED077ADFEDA3
:1006E000527AC7EE277AC7ED077AB2EE027AD7EDD3
:1006F000077AC7EE277AFDEEE77A17EE903ABB61EC
:100700007FE03E2387F82230FB681B781F2B0AD935
:10071000FB681B78DBB25BB2002B04DBFB681B7849
:10072000203B87F82230002387F82E305BE000233F
:1007300087F82F304DE097F82F3007EE903AB8EE5B
:10074000E77AD7ED077A67EE277AFCEEE77A17EEBD
:10075000903AFB7597F82E3007EE903AB8EEE77AAC
:10076000D7ED077A67EE277AFCEEE77A17EE903A34
:10077000BB7597F822309B007A6A13441A68FB7D98
:100780005B0013441B881A46BB7D42FA03F303F057
:100790000103002B18D07B689AB2BB6A9BB213444A
:1007A0009AB297F82F309BB2134499B297F82E3033
:1007B0009AB2BB6B9BB213449AB297F8403008468A
:1007C00011461A4600F0B6FE97F82F30013387F82D
:1007D0002F3097F82F20BB699A42ACDB97F82E3068
:1007E000013387F82E3097F82E2097F83C309A4244
:1007F0009DD3BA69BB6A13440133BB62FB68013302
:10080000FB60FB681B78002B7FF47BAF3037BD4665
:1008100080BD00BF10000020142D0120042A000814
:10082000241E0008E43500080000C84280B582B0EC
:1008300000AF134B7B60134B3B6007E03B681A1D16
:100840003A607A68111D796012681A603A680E4B36
:100850009A42F3D30D480E494FF000028842B8BFC8
:1008600040F8042BFFF6FAAFDFF82800016841F4E6
:100870007001016000F058F80837BD4680BD00BF28
:100880006C790008000000201000002010000020FB
:10089000942F012088ED00E080B400AFFEE700BF98
:1008A00080B586B000AF4FF40030012100F0A0F910
:1008B0000120012100F07EF90C233B6102233B75EE
:1008C0000023BB750123FB7503237B7507F1100320
:1008D0001348194600F04CFA11480221072200F093
:1008E000D5FA0F480321072200F0D0FA4FF416532F
:1008F0003B600023BB800023FB8000233B8100235F
:10090000BB810C237B813B4606481946FFF7F4FC6C
:1009100004480121FFF7AAFD1837BD4680BD00BF7E
:10092000000002400044004080B594B004AF00F0E5
:10093000F3FAFFF7B5FF00F099FDFF2000F0D6FDB8
:1009400002200A210A2200F08FF9032046210A2200
:1009500000F08AF9002082210A2200F085F90120A6
:10096000BE210A2200F080F904200A213C2200F076
:100970007BF9052064213C2200F076F900230093E6
:1009800000230193002302933220C8219622D22310
:10099000FFF7FAFB00230093002301930023029347
:1009A0003220BE219622BE23FFF7EEFB00230093E8
:1009B0000023019300230293962064219622BE23F4
:1009C000FFF7E2FB0A23FB6300F008FF0346002B5E
:1009D00001D0FFF76BFD214B1B889BB203F0200376
:1009E000002B2ED01D4B9B889BB287F8373097F891
:1009F00037300A2B14D13A1DFB6B134400221A70B6
:100A00003B1D002200921022019200220292184601
:100A1000012100220023FFF7C9FD0023FB6310E042
:100A200097F837301F2B0CD997F83730802B08D820
:100A30003A1DFB6B134497F837201A70FB6B013398
:100A4000FB630023BB6302E0BB6B0133BB63BA6B88
:100A500043F697239A42F7DDB6E700BF0044004013
:100A600080B489B000AF78600023BB6100237B6154
:100A70000023FB6102233B610023FB600223BB6078
:100A8000484B9B6803F00C03BB61BB69042B07D088
:100A9000082B09D0002B3FD17B68434A1A603FE006
:100AA0007B68424A1A603BE03E4B5B6803F480037C
:100AB0009B0DFB603B4B5B6803F03F03BB60FB6837
:100AC000002B0DD0394ABB68B2FBF3F2354B5968A5
:100AD00047F6C0730B409B0903FB02F3FB610CE07C
:100AE000314ABB68B2FBF3F22E4B596847F6C0732C
:100AF0000B409B0903FB02F3FB612A4B5B6803F489
:100B000040331B0C01335B003B61FA693B69B2FB6C
:100B1000F3F27B681A6003E07B68234A1A6000BF27
:100B2000204B9B6803F0F003BB61BB691B09BB61F1
:100B30001F4ABB6913441B78DBB27B617B681A6870
:100B40007B69DA407B685A60164B9B6803F4E0537C
:100B5000BB61BB699B0ABB61154ABB6913441B7827
:100B6000DBB27B617B685A687B69DA407B689A609C
:100B70000C4B9B6803F46043BB61BB695B0BBB61BF
:100B80000B4ABB6913441B78DBB27B617B685A68F4
:100B90007B69DA407B68DA602437BD465DF8047B08
:100BA000704700BF003802400024F40000127A00B1
:100BB0000000002080B483B000AF78600B46FB706B
:100BC000FB78002B06D0094B084A116B7A680A4360
:100BD0001A6306E0054B054A116B7A68D2430A4056
:100BE0001A630C37BD465DF8047B7047003802403D
:100BF00080B483B000AF78600B46FB70FB78002BAD
:100C000006D0094B084A116C7A680A431A6406E058
:100C1000054B054A116C7A68D2430A401A640C37B6
:100C2000BD465DF8047B70470038024080B483B055
:100C300000AF78600B46FB70FB78002B06D0094BA9
:100C4000084A516C7A680A435A6406E0054B054A23
:100C5000516C7A68D2430A405A640C37BD465DF83D
:100C6000047B70470038024080B588B000AF03466F
:100C7000B9607A60FB73FB7B052B68D801A252F840
:100C800023F000BFB90C0008C70C0008D50C000801
:100C9000E30C0008AB0C00089D0C00083C23BB765D
:100CA0003C23FB762C4BFB6122E03623BB763C23B6
:100CB000FB762A4BFB611BE03223BB762523FB76B8
:100CC000274BFB6114E03223BB762523FB76254BB3
:100CD000FB610DE02523BB763223FB76224BFB61C3
:100CE00006E02523BB763223FB76204BFB6100BF59
:100CF00000237B6126E000233B611CE0BB689AB2C5
:100D00003B699BB2134499B27B689AB27B699BB2F0
:100D100013449AB2FB7E786900FB03F03B690344FD
:100D2000F86903441B78084611461A4600F002FC95
:100D30003B6901333B61FA7E3B699A42DED87B69AD
:100D400001337B61BA7E7B699A42D4D800E000BF50
:100D50002037BD4680BD00BFC4410008D44F000805
:100D60007C5C0008B8630008F46A00083072000870
:100D700080B487B000AF7860396000237B610023C6
:100D80003B610023FB6000237B6176E07B690122ED
:100D900002FA03F33B613B681A683B691340FB604E
:100DA000FA683B699A4265D17B681A687B695B0087
:100DB000032101FA03F3DB431A407B681A607B6866
:100DC0001A683B681B7919467B695B0001FA03F3DB
:100DD0001A437B681A603B681B79012B03D03B6880
:100DE0001B79022B2ED17B689A687B695B000321FB
:100DF00001FA03F3DB431A407B689A607B689A68C8
:100E00003B685B7919467B695B0001FA03F31A437F
:100E10007B689A607B685A687B699BB2012101FA02
:100E200003F3DB431A407B685A607B685A683B686F
:100E30009B7919467B699BB201FA03F39BB21A4373
:100E40007B685A607B68DA687B699BB25B00032130
:100E500001FA03F3DB431A407B68DA607B68DA68E7
:100E60003B68DB7919467B695B0001FA03F31A439F
:100E70007B68DA607B6901337B617B690F2B85D9E5
:100E80001C37BD465DF8047B704700BF80B485B059
:100E900000AF786013460A467A807B700023FB60BF
:100EA0000023BB607A787B8803F007039B0002FA7B
:100EB00003F3FB607B88DB089BB21A467B88DB0868
:100EC0009BB219467B68083153F821107B8803F0E8
:100ED00007039B000F2000FA03F3DB4319407B68F4
:100EE000083243F822107B88DB089BB21A467B68E5
:100EF000083253F82220FB681343BB607B88DB0871
:100F00009BB21A467B680832B96843F8221014373E
:100F1000BD465DF8047B704780B500AF114B114AA8
:100F2000126842F001021A600E4B00229A600D4ACC
:100F30000C4B1B6823F0847323F480331360094B3C
:100F4000094A5A60074B074A126822F480221A6045
:100F5000044B0022DA6000F00BF8044B4FF0006203
:100F60009A6080BD003802401030002400ED00E09F
:100F700080B483B000AF00237B6000233B60354B1F
:100F8000344A126842F480321A60324B1B6803F410
:100F900000333B607B6801337B603B68002B03D1EF
:100FA0007B68B3F5A06FF0D12A4B1B6803F40033C4
:100FB000002B02D001233B6001E000233B603B6833
:100FC000012B42D1234B234A126C42F080521A6407
:100FD000214B214A126842F480421A601D4B1D4A7F
:100FE00092689A601B4B1B4A926842F400429A60D6
:100FF000184B184A926842F4A0529A60154B174A4F
:101000005A60144B134A126842F080721A6000BF93
:10101000104B1B6803F00073002BF9D0104B40F20B
:1010200005621A600B4B0B4A926822F003029A6029
:10103000084B084A926842F002029A6000BF054BD2
:101040009B6803F00C03082BF9D10C37BD465DF803
:10105000047B70470038024000700040085440078D
:10106000003C024080B483B000AF78607B681B68AE
:1010700023F001027B681A607B6800221A607B689B
:1010800000225A607B6800229A607B680022DA6046
:101090007B6800221A617B6821225A617A68454B7D
:1010A0009A4203D1444B3D229A607EE07A68434BDA
:1010B0009A4204D1404B4FF474629A6075E07A68AA
:1010C0003F4B9A4204D13C4B4FF474129A606CE04F
:1010D0007A683C4B9A4204D1374B4FF074629A6065
:1010E00063E07A68384B9A4203D1334B374ADA606F
:1010F0005BE07A68364B9A4203D12F4B354ADA606F
:1011000053E07A68344B9A4203D12B4B334ADA606E
:101110004BE07A68324B9A4204D1274B4FF03D5254
:10112000DA6042E07A682F4B9A4203D12E4B3D227F
:101130009A603AE07A682D4B9A4204D12A4B4FF4D8
:1011400074629A6031E07A68294B9A4204D1264B46
:101150004FF474129A6028E07A68264B9A4204D1C0
:10116000214B4FF074629A601FE07A68224B9A42DA
:1011700003D11D4B154ADA6017E07A681F4B9A427B
:1011800003D1194B134ADA600FE07A681C4B9A427C
:1011900003D1154B114ADA6007E07A68194B9A427D
:1011A00003D1114B4FF03D52DA600C37BD465DF86C
:1011B000047B7047106002400060024028600240DB
:1011C0004060024058600240706002403D000020D4
:1011D00088600240400F0020A060024000003D20D7
:1011E000B86002401064024000640240286402407B
:1011F00040640240586402407064024088640240C7
:10120000A0640240B864024080B485B000AF78604A
:1012100039600023FB607B681B68FB60FA68244B25
:101220001340FB603B681A683B68DB681A433B6805
:101230005B691A433B689B691A433B68DB691A4345
:101240003B681B6A1A433B685B6A1A433B689B6AAC
:101250001A433B685B6B1A433B689B6B1343FA680A
:101260001343FB607B68FA681A607B685B69FB600C
:10127000FB6823F00703FB603B68DA6A3B681B6B83
:101280001343FA681343FB607B68FA685A613B6852
:101290001A697B685A603B685A687B689A603B6849
:1012A0009A687B68DA601437BD465DF8047B704746
:1012B0003F801CF080B483B000AF78600B46FB70B9
:1012C000FB78002B06D07B681B6843F001027B682B
:1012D0001A6005E07B681B6823F001027B681A60D6
:1012E0000C37BD465DF8047B704700BF80B485B005
:1012F00000AFF860B9601346FB71BB6803F0800370
:10130000002B0FD0FB79002B06D0FB685B6943F004
:101310008002FB685A6105E0FB685B6923F080028C
:10132000FB685A61BB68802B14D0FB79002B08D076
:10133000FB681A68BB6803F01E031A43FB681A6057
:1013400008E0FB681A68BB6803F01E03DB431A4021
:10135000FB681A601437BD465DF8047B704700BF18
:1013600080B487B000AF786039600023FB7500233C
:10137000FB600023BB607A68224B9A4202D8224B62
:101380003B6101E0214B3B613B6823F0F02323F0FC
:10139000C313002B0AD03B68DB0A03F01E03FB607B
:1013A0007B681A68FB681340BB6004E07B685B697C
:1013B00003F08003BB603B6803F00053002B03D0B5
:1013C0003B695B68FB6002E03B691B68FB60FB6894
:1013D00023F0F02323F08213FB60FA683B6813408C
:1013E000002B05D0BB68002B02D00123FB7501E068
:1013F0000023FB75FB7D18461C37BD465DF8047B5A
:10140000704700BF0F640240006002400064024069
:1014100080B485B000AF786039607A68104B9A422A
:1014200002D8104BFB6001E00F4BFB603B6803F000
:101430000053002B07D03B6823F0F02323F08213E6
:10144000FA68D36006E03B6823F0F02323F08213B0
:10145000FA6893601437BD465DF8047B704700BF9F
:101460000F640240006002400064024080B582B018
:1014700000AF1B4B00221A80194B00225A60184BF8
:1014800000229A600023BB8017E00023FB800DE060
:10149000BA8813469B0013449B011A44FB881344EB
:1014A000104A0021D154FB880133FB80FB88B3F53F
:1014B000A07FEDD9BB880133BB80BB88EF2BE4D97B
:1014C00000F060F800F0B2F800F040F900F012F916
:1014D000054B1A68024B9A600837BD4680BD00BFB5
:1014E00018000020240000208864024080B584B0E9
:1014F00000AF0346FB710023BB8114E00023FB8196
:101500000AE0F989BA89FB79084611461A4600F0C3
:1015100011F8FB890133FB81FB89B3F5A07FF0D380
:10152000BB890133BB81BB89EF2BE7D91037BD469F
:1015300080BD00BF80B483B000AF13460246FA807E
:101540000A46BA80FB70FB88B3F5A07F01D3012364
:1015500010E0BB88EF2B01D901230BE0BA881346BA
:101560009B0013449B011A44FB881344044AF978F6
:10157000D154002318460C37BD465DF8047B7047F4
:101580002400002080B582B000AF10200121FFF7B9
:1015900011FB4FF47F433B6001233B710023BB7180
:1015A0000123FB7103237B713B461E481946FFF75D
:1015B000DFFB1C4B4FF47F425A8302200121FFF7CF
:1015C000F9FA4FF400633B6002233B7103237B7104
:1015D0000023BB710123FB713B4613481946FFF7FB
:1015E000C7FB11480B210122FFF750FC022001210B
:1015F000FFF7E0FA4FF480533B6001233B71002377
:10160000BB710123FB7103237B713B4606481946DE
:10161000FFF7AEFB044B4FF480521A830837BD46E8
:1016200080BD00BF001002400004024080B588B0B9
:1016300000AF01200121FFF7F9FA0B23BB61002362
:10164000BB820023BB830023FB8207F114032848DD
:10165000194600F0BFF901200121FFF7C9FA40F651
:101660006B23BB610023BB820023BB830023FB826F
:1016700007F114034FF08040194600F0ABF96023E6
:101680003B8001237B804FF4D273BB600223BB817C
:101690003B464FF08040194600F046FA4FF080403C
:1016A000082100F02DFB60233B8001237B804FF459
:1016B000A073BB600223BB813B464FF080401946BC
:1016C00000F0B8FA4FF08040082100F035FB0848E0
:1016D000012100F0E9F94FF08040012100F0E4F928
:1016E0004FF08040012100F0FFF92037BD4680BD5A
:1016F0000000014080B582B000AF134810210122E4
:10170000FFF7F4FD44233B7100237B710023BB7181
:101710000123FB713B1D184600F0FEF84FF080409E
:101720000821012200F026FB1C233B7100237B7162
:101730000023BB710123FB713B1D184600F0ECF840
:101740000837BD4680BD00BF8864024080B590B0B8
:1017500000AF4FF480000121FFF72CFA1B48002155
:10176000FFF7A8FD1948FFF77DFC4FF040637B6051
:10177000174BBB60174BFB6040233B6140F24113AA
:101780007B610023BB614FF48063FB6100233B62FC
:1017900000237B620023BB624FF44033FB620023D3
:1017A0003B6301237B630023BB630023FB633B1D7F
:1017B00006481946FFF728FD07484FF480710122BB
:1017C00000F00CFB4037BD4680BD00BF886402407E
:1017D00015100240240000200000014080B400AF3A
:1017E000074B1B683C2B04DD054B00221A600123CC
:1017F00000E000231846BD465DF8047B704700BF3B
:101800001400002080B500AF4FF08040082100F0A8
:10181000D5FA284B1B88012B04D8274B4FF4805254
:101820005A8303E0244B4FF480521A83214B1B88C8
:1018300001339AB21F4B1A801E4B1B88B3F5037FEE
:101840000AD91C4B00221A801C4A1A4B5A601C4BA6
:101850001B685A1C1A4B1A60164B1B88232B27D95E
:10186000144B1A8840F202239A4221D8154B114A90
:1018700092681A60134B0F4A5268DA60124B124A90
:10188000128892B242F0010292B21A800D4B0D4AB8
:10189000126842F001021A60064B1B8803F0010334
:1018A000002B05D0034B5B6803F24112014B5A60D9
:1018B00080BD00BF1800002000040240240000206A
:1018C00014000020886402400000014080B500AF91
:1018D0000D480E49FFF744FD0346002B12D00A487D
:1018E0000A49FFF795FD0A4B094A128892B222F085
:1018F000010292B21A80044B00221A60054B4FF489
:101900007F425A8380BD00BF886402400088002067
:10191000000001400010024080B485B000AF786044
:101920000023FB730023BB730F237B737B68DB787F
:10193000002B37D0254BDB68DB4303F4E0631B0A45
:10194000FB73FB7BC3F10403BB737A7BFB7B42FA23
:1019500003F37B737B685B781A46BB7B02FA03F365
:10196000FB737B689A787B7B1340DAB2FB7B134373
:10197000FB73FB7B1B01FB73154A7B681B781344CD
:10198000FA7B83F80023124B7A6812785209D2B29C
:101990007968097801F01F01012000FA01F143F88C
:1019A00022100EE00A4B7A6812785209D2B2796896
:1019B000097801F01F01012000FA01F1203243F8FB
:1019C00022101437BD465DF8047B704700ED00E03F
:1019D00000E100E080B485B000AF7860396000239A
:1019E000FB817B681B88FB817A68284B9A4213D065
:1019F0007A68274B9A420FD07B68B3F1804F0BD0A7
:101A00007A68244B9A4207D07A68234B9A4203D0D3
:101A10007A68224B9A4208D1FB8923F07003FB813C
:101A20003B685A88FB891343FB817A681C4B9A42B6
:101A30000CD07A681B4B9A4208D0FB8923F4407380
:101A4000FB813B681A89FB891343FB817B68FA8918
:101A50001A803B685A687B68DA623B681A887B6840
:101A60001A857A68094B9A4203D07A68084B9A42E1
:101A700004D13B689B7A1A467B681A867B680122F0
:101A80009A821437BD465DF8047B70470000014020
:101A9000000401400004004000080040000C004029
:101AA000001000400014004080B483B000AF7860A4
:101AB0000B46FB70FB78002B08D07B681B889BB221
:101AC00043F080039AB27B681A8007E07B681B882A
:101AD0009BB223F080039AB27B681A800C37BD4614
:101AE0005DF8047B704700BF80B483B000AF7860BE
:101AF0000B46FB70FB78002B08D07B681B889BB2E1
:101B000043F001039AB27B681A8007E07B681B8868
:101B10009BB223F001039AB27B681A800C37BD4652
:101B20005DF8047B704700BF80B485B000AF78607B
:101B3000396000237B810023FB810023BB817B680C
:101B40001B8C9BB223F480739AB27B681A847B68E7
:101B50001B8CFB817B689B88BB817B689B8B7B811B
:101B60007B8923F070037B817B8923F003037B81D6
:101B70003B681A887B8913437B81FB8923F40073BC
:101B8000FB813B689B891B029AB2FB891343FB8153
:101B90003B685B881B029AB2FB891343FB817A681E
:101BA000224B9A4203D07A68214B9A422BD1FB896F
:101BB00023F40063FB813B68DB891B029AB2FB893B
:101BC0001343FB81FB8923F48063FB813B689B8883
:101BD0001B029AB2FB891343FB81BB8923F4805318
:101BE000BB81BB8923F40053BB813B681B8A1B016B
:101BF0009AB2BB891343BB813B685B8A1B019AB2D3
:101C0000BB891343BB817B68BA899A807B687A89D8
:101C10009A833B689A687B68DA637B68FA891A84DE
:101C20001437BD465DF8047B704700BF00000140DB
:101C30000004014080B485B000AF786039600023B3
:101C4000BB8100237B810023FB817B681B8C9BB2C3
:101C500023F480539AB27B681A847B681B8C7B8147
:101C60007B689B88FB817B689B8BBB81BB8923F452
:101C7000E043BB81BB8923F44073BB813B681B8875
:101C80001B029AB2BB891343BB817B8923F40053A7
:101C90007B813B689B891B039AB27B8913437B81C1
:101CA0003B685B881B039AB27B8913437B817A680C
:101CB000114B9A4203D07A68104B9A420AD1FB89A1
:101CC00023F48043FB813B681B8A9B019AB2FB890A
:101CD0001343FB817B68FA899A807B68BA899A836F
:101CE0003B689A687B681A647B687A891A8414371F
:101CF000BD465DF8047B70470000014000040140D0
:101D000080B485B000AF78600B467B800023FB81F8
:101D10007B689B8BFB81FB8923F00803FB81FA899D
:101D20007B881343FB817B68FA899A831437BD460D
:101D30005DF8047B704700BF80B485B000AF786069
:101D40000B467B800023FB817B689B8BFB81FB899F
:101D500023F40063FB817B881B029AB2FB89134347
:101D6000FB817B68FA899A831437BD465DF8047B52
:101D7000704700BF80B483B000AF786013460A4656
:101D80007A807B707B78002B08D07B689B899AB225
:101D90007B8813439AB27B689A8109E07B689B89B0
:101DA0009AB27B88DB439BB213409AB27B689A81DC
:101DB0000C37BD465DF8047B704700BF80B483B02C
:101DC00000AF78600B467B807B88DB439AB27B68F0
:101DD0001A820C37BD465DF8047B704780B483B02F
:101DE00000AF786013460A467A807B707B78002BC0
:101DF00008D07B689B899AB27B8813439AB27B6830
:101E00009A8109E07B689B899AB27B88DB439BB20D
:101E100013409AB27B689A810C37BD465DF8047B0B
:101E2000704700BF0000000000000000000000003C
:101E300000000000000000000000000000000000A2
:101E400000000000000000000018F81BF8137800E4
:101E5000080000000000000000000000000000007A
:101E6000000000000000000018003800400078006A
:101E7000080000000000000000000000000000005A
:101E800000000000000000004002C01FF00F400EE4
:101E9000F00F7006000000000000000000000000CD
:101EA0000000000000000000C000E004F00D300F52
:101EB00020070002000000000000000000000000F9
:101EC0000000000000000000F000F8008800F83872
:101ED000F01FF807781F081F0019001F00060000F8
:101EE00000000000000000000007F00FF81F981924
:101EF0009008100800000000000000000000000032
:101F000000000000000000007800780008000000D9
:101F100000000000000000000000000000000000C1
:101F20000000000000000000C00FF01FF83F10206C
:101F300000000000000000000000000000000000A1
:101F400000000000000000001020383CF01FE00FEF
:101F50000000000000000000000000000000000081
:101F60000000000000000000A000F000F801F801EF
:101F7000F0008000000000000000000000000000F1
:101F8000000000000000000080018001E007E00781
:101F900080010000000000000000000000000000C0
:101FA0000000000000000000003C001C00000000D9
:101FB0000000000000000000000000000000000021
:101FC0000000000000000000000200030003000108
:101FD0000000000000000000000000000000000001
:101FE00000000000000000000018001800080000B9
:101FF00000000000000000000000000000000000E1
:1020000000000000000000000038801FF807780082
:1020100008000000000000000000000000000000B8
:102020000000000000000000C007F00F781C181826
:10203000181CF01FF00F000000000000000000005E
:10204000000000000000000020003018F81FF81FFA
:102050000018001800000000000000000000000050
:1020600000000000000000000018181C181FF81BDA
:10207000F818381800000000000000000000000000
:10208000000000000000000000080C18CC1CFC1C24
:10209000FC0F3807000000000000000000000000F6
:1020A0000000000000000000F001F803F00300034E
:1020B000F00FF81F00030000000000000000000007
:1020C0000000000000000000F800F819F819881D51
:1020D000880F000700000000000000000000000062
:1020E0000000000000000000C007F01FF81FD81813
:1020F000D81DF81F8007000000000000000000004D
:10210000000000000000000008001818181FF80761
:10211000F801300000000000000000000000000096
:102120000000000000000000000EF81FFC198C19D0
:10213000FC1DF81F300E0000000000000000000031
:102140000000000000000000F000F81B9C1B0C1BAE
:10215000BC1FFC0FE00300000000000000000000B6
:1021600000000000000000008018C018C008000037
:10217000000000000000000000000000000000005F
:1021800000000000000000008038C038C0080000D7
:10219000000000000000000000000000000000003F
:1021A00000000000000000000001E007F81F383CBC
:1021B0000800000000000000000000000000000017
:1021C00000000000000000000004C006C006C006B9
:1021D00000000000000000000000000000000000FF
:1021E000000000000000000008003818F81FE00799
:1021F000800100000000000000000000000000005E
:102200000000000000000000000018131817180359
:10221000F801F800E00000000000000000000000ED
:1022200000000000000000000000F00F381EE81F52
:10223000281CE81F080EF80700000000000000003E
:102240000000000000000000001CE01FF80F780CE8
:10225000F80DF01F801F00100000000000000000BB
:1022600000000000000000003800F81FF81F981957
:10227000D819F80F700F00000000000000000000E7
:102280000000000000000000C007F00FF81F181841
:1022900018181818000000000000000000000000DE
:1022A00000000000000000000000F81FF81F1818D0
:1022B000181CF80FF007C00100000000000000002B
:1022C00000000000000000001800F81FF81F981917
:1022D000981800000000000000000000000000004E
:1022E00000000000000000001800F81FF81F18018F
:1022F00018011800000000000000000000000000AD
:102300000000000000000000C007F00FF81F3818A0
:102310001818183F083F00000000000000000000EF
:102320000000000000000000F81FF81FF81F8001E7
:102330008001F81FF81F7800000000000000000076
:102340000000000000000000F80FF81FF81F000058
:10235000000000000000000000000000000000007D
:102360000000000000000000001800180018F81F0E
:10237000F81FC00100000000000000000000000085
:102380000000000000000000F80FF81FF803E00351
:10239000F81F381E000000000000000000000000D0
:1023A0000000000000000000F80FF81FF01F0018E8
:1023B0000018000000000000000000000000000005
:1023C0000000000000000000001FF81FF807F807D9
:1023D000C01FC00FF803F80FF81F0018000000001E
:1023E0000000000000000000E01FF81FF80FF003DD
:1023F000C00FF81FF81F00000000000000000000E0
:102400000000000000000000E007F01F781E181810
:10241000381CF01FF00F000000000000000000005A
:102420000000000000000000E80FF81FF80F18037C
:10243000B801F801F00000000000000000000000FA
:102440000000000000000000C007F01F781C1818F2
:10245000381CF81FF017000000000000000000000A
:102460000000000000000000E800F81FF80F18034B
:10247000980FF81FF01C0000000000000000000092
:102480000000000000000000C000F031F031383BD7
:10249000181F181E000400000000000000000000CB
:1024A000000000000000000010003800F83FF83F76
:1024B00038003800000000000000000000000000AC
:1024C0000000000000000000F807F81FF01F0018CF
:1024D0000018F81FF81F00000000000000000000B6
:1024E00000000000000000003800F803F01F001F8B
:1024F000E01FF803380000000000000000000000AA
:102500000000000000000000F800F81FC01FE01FDE
:10251000F801F80F801FC01FF80FF800000000003E
:1025200000000000000000001810781EF00FE00707
:10253000F81F381C00000000000000000000000030
:10254000000000000000000010007800F00FC01F25
:10255000F01F7800180000000000000000000000DC
:1025600000000000000000001008181ED81FF81B13
:10257000F81818180000000000000000000000001B
:1025800000000000000000000000F81FF8191818F3
:10259000000000000000000000000000000000003B
:1025A00000000000000000001800F801F01F003FCC
:1025B000001000000000000000000000000000000B
:1025C000000000000000000010101818F81FF81F8D
:1025D00000000000000000000000000000000000FB
:1025E00000000000000000008000E00070003800E3
:1025F000F800C00000000000000000000000000023
:102600000000000000000000001000180018001872
:10261000001800180000000000000000000000008A
:10262000000000000000000000001800180010006A
:10263000000000000000000000000000000000009A
:102640000000000000000000001CC01FE007E004C4
:10265000E00F801F001000000000000000000000DC
:1026600000000000000000006000E01FE01F601B91
:10267000E01FC00F0000000000000000000000008C
:102680000000000000000000C007E01F701C3018B0
:102690001018000000000000000000000000000012
:1026A0000000000000000000A01FE03F603C601838
:1026B000E01CC00F0003000000000000000000004C
:1026C0000000000000000000E00FE01FE01F2011EC
:1026D00020100000000000000000000000000000CA
:1026E00000000000000000002000E01FE01F2003A9
:1026F00020030000000000000000000000000000B7
:1027000000000000000000008007C01FE01C6018EF
:10271000201E001E0000000000000000000000005D
:102720000000000000000000C01FE01FE01F0003C9
:10273000001FE01FE00F000000000000000000008C
:102740000000000000000000C01FE01FE01F0000AC
:102750000000000000000000000000000000000079
:10276000000000000000000000180018E01FE01F3B
:10277000E00F00000000000000000000000000006A
:102780000000000000000000E01FE01F8003C00FF9
:10279000E01E200800000000000000000000000013
:1027A00000000000000000000000E03FE03F0030BB
:1027B0000010000000000000000000000000000009
:1027C0000000000000000000001FE01FE007800F75
:1027D000800FE003E01FC01F0000000000000000A9
:1027E0000000000000000000E01FE01FE00780077D
:1027F000001EE01FE01F00000000000000000000BD
:1028000000000000000000008007C01FE01C6018EE
:10281000C01EC00F80030000000000000000000088
:1028200000000000000000004000E01FE01F600604
:10283000E003C003000000000000000000000000F2
:1028400000000000000000008007E01FE018601C8E
:10285000E01FC01F0000000000000000000000009A
:102860000000000000000000A000E01FE007600E74
:10287000E01FE01BC000000000000000000000009E
:1028800000000000000000008001C013E013601E83
:10289000601E000C000000000000000000000000AE
:1028A000000000000000000060006000E01FE01F6A
:1028B0006000600000000000000000000000000058
:1028C0000000000000000000E00FE01F201C0018C6
:1028D000E01FE01FE01F00000000000000000000FB
:1028E0000000000000000000E000E01F801F001C4E
:1028F000C01FE003400000000000000000000000D6
:102900000000000000000000E003E01F001FE007DF
:10291000E007C01FC01FE0076000000000000000CB
:1029200000000000000000002010E01FC00FC00FDA
:10293000E01C00100000000000000000000000008B
:1029400000000000000000006000E001C01FC01F88
:10295000E007600000000000000000000000000030
:1029600000000000000000002000201EA01FE01357
:10297000E010000000000000000000000000000067
:10298000000000000000000000019007F83F783AC6
:10299000081000000000000000000000000000001F
:1029A00000000000000000000000D81F981F000079
:1029B0000000000000000000000000000000000017
:1029C000000000000000000004002E1EFE1FF80999
:1029D0008000000000000000000000000000000077
:1029E000000000000000000000003800180018007F
:1029F0003000300038001800000000000000000027
:102A000000000000000000000000000000000000C6
:102A100000000000000000000000000000000000B6
:102A200000000000FC07FC070000000000000000A0
:102A30000000000000000000000000000000000096
:102A4000000000000700070007000700000000006A
:102A50000000000000000000000000000000000076
:102A6000000000002001A007F807FC01B007FC07E8
:102A7000FC01200100000000000000000000000038
:102A80000000000078067C06FC06EC06CC07CC07AC
:102A90000000000000000000000000000000000036
:102AA00000000000FC00FC00CC04F8068003E001FC
:102AB0007800DC07C404C007C00700000000000065
:102AC000000000000007F007F805D807F8077007B6
:102AD00000070000000000000000000000000000EF
:102AE000000000003C003C0000000000000000006E
:102AF00000000000000000000000000000000000D6
:102B000000000000FE07FF070100000000000000B9
:102B100000000000000000000000000000000000B5
:102B200000000000FF07FF07FE0700000000000094
:102B30000000000000000000000000000000000095
:102B400000000000080038001C00380008000000E9
:102B50000000000000000000000000000000000075
:102B60000000000040004000F001F0016000400063
:102B70000000000000000000000000000000000055
:102B80000000000000070007000000000000000037
:102B90000000000000000000000000000000000035
:102BA00000000000C000C000C000000000000000E5
:102BB0000000000000000000000000000000000015
:102BC00000000000000300030000000000000000FF
:102BD00000000000000000000000000000000000F5
:102BE0000000000000040007C003F00038000C00E3
:102BF00000000000000000000000000000000000D5
:102C000000000000F807FC070C060C04FC07F8079E
:102C1000F8030000000000000000000000000000B9
:102C2000000000000C000C00FC07FC070000000086
:102C30000000000000000000000000000000000094
:102C4000000000008C07CC07CC06CC04FC04F80480
:102C50000000000000000000000000000000000074
:102C6000000000000C040C04CC04CC06FC07F807A0
:102C70000000000000000000000000000000000054
:102C800000000000E001F801FC018C01FC07FC07DA
:102C90000000000000000000000000000000000034
:102CA00000000000FC04FC04FC04CC06CC07CC07AC
:102CB0000000000000000000000000000000000014
:102CC00000000000F807FC07EC06CC04CC07CC079A
:102CD0008003000000000000000000000000000071
:102CE000000000000C000C000C07EC07FC01380091
:102CF00000000000000000000000000000000000D4
:102D000000000000F807FC07CC06CC04FC07F8071D
:102D10003807000000000000000000000000000074
:102D200000000000F800FC04CC04CC04FC06F8070A
:102D3000F807000000000000000000000000000094
:102D40000000000030063006000000000000000017
:102D50000000000000000000000000000000000073
:102D60000000000018071807000000000000000025
:102D70000000000000000000000000000000000053
:102D8000000000006000E000B0009001180108039E
:102D90000000000000000000000000000000000033
:102DA00000000000B000B000B000B000B000A00013
:102DB0000000000000000000000000000000000013
:102DC00000000000080198019800F0007000600009
:102DD00000000000000000000000000000000000F3
:102DE000000000000C008C04CC07CC04FC007C002C
:102DF00000000000000000000000000000000000D3
:102E000000000000E0013807C804EC052409E409CB
:102E1000EC091809F00100000000000000000000AB
:102E2000000000008003F003FC01DE00FE00FC0156
:102E3000E0030003000000000000000000000000AC
:102E400000000000FE03FE0366036602FE03FE03AD
:102E5000FC03000000000000000000000000000073
:102E600000000000FC03FE03060306020602060241
:102E70000000000000000000000000000000000052
:102E800000000000FE03FE03060206020603FC0328
:102E9000FC03000000000000000000000000000033
:102EA00000000000FC03FE03660366026602640283
:102EB0000000000000000000000000000000000012
:102EC00000000000FC03FE036E0066006600660062
:102ED00000000000000000000000000000000000F2
:102EE00000000000FC03FE0306030602C603E6031F
:102EF000E0030000000000000000000000000000EF
:102F000000000000FC07FC07600060006000FC0798
:102F1000FC070000000000000000000000000000AE
:102F200000000000FE03FE0300000000000000009F
:102F30000000000000000000000000000000000091
:102F4000000000000002FE03FE03FE01000000007E
:102F50000000000000000000000000000000000071
:102F600000000000FC07FC07E000F801FC030C0770
:102F70000404000000000000000000000000000049
:102F800000000000FC03FC07000600060006000627
:102F90000000000000000000000000000000000031
:102FA00000000000FC07FC07FC00FC03C007E00772
:102FB000FC01FC07FC07FC0700000000000000000B
:102FC00000000000FC07FC077C00F803C007FC07BA
:102FD000FC030000000000000000000000000000F2
:102FE00000000000FC03FC070C060C063C07FC0775
:102FF000F8030000000000000000000000000000D6
:1030000000000000FC07FC07CC00CC00DC00FC004A
:103010007800000000000000000000000000000038
:1030200000000000FC01FE0106030603FE07FC058C
:103030000000000000000000000000000000000090
:1030400000000000FC07FC07CC00CC01EC077C076B
:103050003C04000000000000000000000000000030
:10306000000000007C067C06CC06CC06CC07CC0712
:103070000000000000000000000000000000000050
:10308000000000000C000C00FC07FC070C000C000A
:103090000000000000000000000000000000000030
:1030A00000000000FC07FC0700060006F807FC070C
:1030B000FC03000000000000000000000000000011
:1030C000000000000C007C00F803C007C007F803F4
:1030D0007C000C0000000000000000000000000068
:1030E000000000003C00FC03F007F007FC03FC00BC
:1030F000FC07C007FC07FC00040000000000000003
:103100000000000004040C07BC07F801F801BC072C
:103110000C07040400000000000000000000000094
:103120000000000004001C007C00F007F0077C0099
:103130001C0004000000000000000000000000006F
:10314000000000000C068C07CC07FC063C061C06A1
:10315000000000000000000000000000000000006F
:1031600000000000FE07FE07000000000000000055
:10317000000000000000000000000000000000004F
:103180000000000007003E00F800E0070007000014
:10319000000000000000000000000000000000002F
:1031A00000000000FE07FE07FE0700000000000010
:1031B000000000000000000000000000000000000F
:1031C00000000000040006000300030004000000EB
:1031D00000000000000000000000000000000000EF
:1031E00000000000000400040004000400040004C7
:1031F00000040000000000000000000000000000CB
:1032000000000000010003000200000000000000B8
:1032100000000000000000000000000000000000AE
:1032200000000000B007B007B006B006F007E007E6
:10323000000000000000000000000000000000008E
:1032400000000000FC07FC0730063006F007E0072E
:10325000000000000000000000000000000000006E
:1032600000000000F003F0073006300610060000F2
:10327000000000000000000000000000000000004E
:1032800000000000E007F00730063006FC07FC07EE
:10329000000000000000000000000000000000002E
:1032A00000000000E007F007B007F004F00460043D
:1032B000000000000000000000000000000000000E
:1032C00000000000FC07FC073400000000000000C4
:1032D00000000000000000000000000000000000EE
:1032E00000000000FC06FE06C6068606FE07FC037C
:1032F00000000000000000000000000000000000CE
:1033000000000000FC07FC0730003000F007E00779
:1033100000000000000000000000000000000000AD
:1033200000000000F607F6070000000000000000A3
:10333000000000000000000000000000000000008D
:10334000000000000004FB07FB0700000000000075
:10335000000000000000000000000000000000006D
:1033600000000000FC07FC07C001E0077006100425
:10337000000000000000000000000000000000004D
:1033800000000000FC07FC07000000000000000037
:10339000000000000000000000000000000000002D
:1033A00000000000E007F0073000F003E007300005
:1033B0003000F007E00700000000000000000000FF
:1033C00000000000E007F00730003000F007E007E1
:1033D00000000000000000000000000000000000ED
:1033E00000000000E007E00720042004E007E007F9
:1033F00000000000000000000000000000000000CD
:1034000000000000FC07FC078C018C01FC01FC00A3
:1034100000000000000000000000000000000000AC
:1034200000000000FC00FC018C018C01FC07FC0783
:10343000000000000000000000000000000000008C
:1034400000000000E007F00730000000000000006E
:10345000000000000000000000000000000000006C
:1034600000000000E004E005E005A007A00720023E
:10347000000000000000000000000000000000004C
:1034800000000000FC07FC07200000000000000016
:10349000000000000000000000000000000000002C
:1034A00000000000E007E00700040004E007E00778
:1034B000000000000000000000000000000000000C
:1034C000000000007000F001C0070007E007F000F6
:1034D00030000000000000000000000000000000BC
:1034E00000000000F000F0078007E007F001E007AF
:1034F0008007F007F000000000000000000000005E
:103500000000000020046006E007E00760072004D8
:1035100000000000000000000000000000000000AB
:1035200000000000FC04FC0580058005FC07FC078A
:10353000000000000000000000000000000000008B
:103540000000000020062007A007E005E00460045A
:10355000000000000000000000000000000000006B
:1035600000000000E003FC077E06060000000000EB
:10357000000000000000000000000000000000004B
:1035800000000000FC07FC07000000000000000035
:10359000000000000000000000000000000000002B
:1035A000000000000200FE07FE07C001000000004E
:1035B000000000000000000000000000000000000B
:1035C000000000008000C000C000C000800080003B
:1035D000C0004000000000000000000000000000EB
:1035E00000000000000000000000000000000000DB
:1035F00000000000000000000000000000000000CB
:10360000000000000000C02FE021000000000000CA
:1036100000000000000000000000000000000000AA
:10362000000000000000E0000000E0016000000079
:10363000000000000000000000000000000000008A
:10364000000000000004803C800FC005E03C800FBB
:10365000E005A00480000000000000000000000061
:10366000000000008018E01920713813601E600C03
:10367000000000000000000000000000000000004A
:10368000000000008003C0074014C00F8007001F27
:10369000C03F4022003E001C00000000000000006F
:1036A000000000000006000F6009E03F003F000C32
:1036B0000006000300000000000000000000000001
:1036C000000000000000E001000000000000000019
:1036D00000000000000000000000000000000000EA
:1036E00000000000000E803FE0606000000000006D
:1036F00000000000000000000000000000000000CA
:10370000000000002040E07F801F0000000000005B
:1037100000000000000000000000000000000000A9
:10372000000000004002C003E0018003800280002E
:103730000000000000000000000000000000000089
:1037400000000000000200020002801F8007000449
:103750000004000000000000000000000000000065
:103760000000000000000058007800000000000089
:103770000000000000000000000000000000000049
:103780000000000000020002000200020000000031
:103790000000000000000000000000000000000029
:1037A00000000000000000180018000000000000E9
:1037B0000000000000000000000000000000000009
:1037C000000000000078007FE0037000100000009F
:1037D00000000000000000000000000000000000E9
:1037E00000000000000F801FC03040204020C0308B
:1037F000801F000700000000000000000000000023
:103800000000000040204020603CE03FE02100201C
:1038100000000000000000000000000000000000A8
:1038200000000000403060306038202EE027C031BA
:103830000010000000000000000000000000000078
:10384000000000000030202120212023E03F001C48
:103850000000000000000000000000000000000068
:10386000000000000007C0076004207FC00FC004F4
:103870000000000000000000000000000000000048
:1038800000000000C030E030A020A020A03F201F9A
:103890000000000000000000000000000000000028
:1038A00000000000001EC03F60622042607E603C5D
:1038B0000000000000000000000000000000000008
:1038C00000000000600060302038201C2007E0036A
:1038D000E000000000000000000000000000000008
:1038E00000000000801CE03F602320222036E01F03
:1038F000800900000000000000000000000000003F
:10390000000000008003E04720642034201EC00F28
:103910008003000000000000000000000000000024
:103920000000000000008019801900000000000065
:103930000000000000000000000000000000000087
:1039400000000000003000B300F3000000000000A1
:103950000000000000000000000000000000000067
:1039600000000000000000020007800DC018401099
:103970000000000000000000000000000000000047
:103980000000000000050005000500050005000519
:103990000005000000000000000000000000000022
:1039A0000000000000004020C0308018800D00079B
:1039B0000002000000000000000000000000000005
:1039C00000000000600060362037E001C000000009
:1039D00000000000000000000000000000000000E7
:1039E000000000000007C03F60603040109F9091D1
:1039F0009090909F909F30D06058C00F00030000BF
:103A0000000000000018000A000E0007C007F00CBC
:103A10007808E00B000F003C007800400000000038
:103A2000000000001800F87FF87F08410841984125
:103A3000F063603E001C0000000000000000000079
:103A4000000000000006C01FE03030601040104051
:103A50001040104010203030001000000000000026
:103A6000000000000000F07FF07F10401040104088
:103A7000104030602020E038C01F0003000000002C
:103A8000000000001040107EF07F104210421042F3
:103A90001042206020200000000000000000000014
:103AA000000000001000F07FF07F100110011001F5
:103AB00010011000000000000000000000000000E5
:103AC00000000000800FC03F607030401042104284
:103AD0001062103E307E204600040000000000000E
:103AE000000000000000F07FF07F000200020002F2
:103AF00000020002C03FF07F000000000000000054
:103B00000000000010401040F07FD07F1040000007
:103B100000000000000000000000000000000000A5
:103B20000000000000381060104010401060703835
:103B3000F01F100000000000000000000000000066
:103B4000000000000000F07FF03F000380038007CA
:103B5000C00E601C303810700040000000000000F3
:103B6000000000001040F07FF07F10401040004047
:103B70000040006000380018000000000000000055
:103B8000000000000000C03FF03F30006000C001B6
:103B900080070007C001E0003000F07FE07F0000F8
:103BA000000000000000C07FF007F000C003000725
:103BB000001C0038007EF07F700000000000000054
:103BC00000000000000FC01F603030601040104047
:103BD000104030606030C01F000F00000000000087
:103BE0000000000020003060F07FD00710041004B7
:103BF0003004E007C00300000000000000000000E7
:103C0000000000000007C04F605830501070106076
:103C1000106030F02098E09F808700C000C0000056
:103C2000000000002000B07FF07F30041004100C72
:103C3000701BE033006000400040004000000000C6
:103C400000000000C001E0F330761044104C107802
:103C5000703870000000000000000000000000004C
:103C6000000000007000100010001000F07FF07FD6
:103C700010001000300020000000000000000000D4
:103C8000000000000000803FF07F704010401040B6
:103C900000401020703CF00F1000000000000000F9
:103CA000000000003000F000D00F107E00700038DF
:103CB000100FF00370001000100000000000000062
:103CC000000000007800F81F087C08600070001CED
:103CD000E007E07F00E008F0F83FF803080000008C
:103CE0000000000030703038600CC0060003000394
:103CF000000FC038707030000000000000000000AD
:103D0000000000007000E0018003007E007E0003E0
:103D10008001E000700010000000000000000000C2
:103D200000000000102010301078105C104E10477A
:103D30009043F041F02020300018000800000000FF
:103D4000000000000000C07FE07F204020402040B5
:103D50000000000000000000000000000000000063
:103D6000000000003000F000C007003E00780000B6
:103D70000000000000000000000000000000000043
:103D800000000000202020202020E03FE00F000065
:103D90000000000000000000000000000000000023
:103DA000000000000000000200018001800100010D
:103DB0000002000000000000000000000000000001
:103DC00000000000000000000000000000000000F3
:103DD00000000000000000000000000000000000E3
:103DE00000000000000004000400080008000000BB
:103DF00000000000000000000000000000000000C3
:103E000000000000001CC03EC0224022C036807F5F
:103E100000000000000000000000000000000000A2
:103E2000000000001000F07FC03F40204020C03064
:103E3000801F000F000000000000000000000000D4
:103E400000000000000FC01F603020202020203024
:103E5000E018000800000000000000000000000062
:103E600000000000001E803FC03040204020C038CD
:103E7000F03FF01F00000000000000000000000004
:103E800000000000000E803FC02440244024C037C2
:103E9000800300000000000000000000000000009F
:103EA000000000000002C07FF07F1002100230020C
:103EB00030000000000000000000000000000000D2
:103EC000000000008069C04F204A204A207BE03B70
:103ED000A000000000000000000000000000000042
:103EE000000000000000F07FC07F40004000C06084
:103EF000807F000C000000000000000000000000B7
:103F0000000000000000D83FD80F000000000000B3
:103F100000000000000000000000000000000000A1
:103F2000000000000060D87FD81F000000000000E3
:103F30000000000000000000000000000000000081
:103F4000000000000000F01FF01F8001C003600EA1
:103F500060180000000000000000000000000000E9
:103F6000000000000000E07FE07F00000000000093
:103F70000000000000000000000000000000000041
:103F8000000000000000E03FC0014000C01FC03F33
:103F900040004000C03F801F000000000000000003
:103FA000000000000000C03FC03F40004000C03F94
:103FB000803F000000000000000000000000000042
:103FC000000000000007801FC01840104010C018FB
:103FD000800F00070000000000000000000000004B
:103FE000000000000060C07FC01840104010C018E2
:103FF000800F000200000000000000000000000030
:1040000000000000000E801FC020402040204078AB
:10401000C0FF0003000000000000000000000000DE
:10402000000000004000C01FC01F4000C000C000D2
:104030000000000000000000000000000000000080
:10404000000000000030C033C027403CC01C80008E
:104050000000000000000000000000000000000060
:104060000000000080008007C01FC0188010801072
:104070000000000000000000000000000000000040
:10408000000000000000C01FC03F002000200030E2
:10409000803F003000000000000000000000000031
:1040A00000000000E000C003003F003C001FE007EC
:1040B00060000000000000000000000000000000A0
:1040C000000000008007C01F00300020003F003FBC
:1040D00000200020C03FC01F0000000000000000C2
:1040E000000000004010C019000D00060007C00DC0
:1040F000C0180010000000000000000000000000D8
:1041000000000000C000C063003F000FC003C000FB
:10411000000000000000000000000000000000009F
:10412000000000002018201E2037A021E020602081
:10413000402000000000000000000000000000001F
:104140000000000000020006E07DF0C11080108039
:10415000000000000000000000000000000000005F
:104160000000000000000000F8FFF8FF0000000061
:10417000000000000000000000000000000000003F
:1041800000000000108010803080F0FD003F000231
:10419000000200000000000000000000000000001D
:1041A00000000000000600030001000300060004F8
:1041B00000060002000000000000000000000000F7
:1041C00000000000FFFFFFFFFFFFFFFFFFFFFFFFFB
:1041D000FFFFFFFFFFFFFFFFFFFFFFFFFFFFFFFFEF
:1041E000FFFFFFFFFFFFFFFFFFFFFFFFFFFFFFFFDF
:1041F000FFFFFFFFFFFFFFFFFFFFFFFFFFFFFFFFCF
:10420000FFFFFFFFFFFFFFFFFFFFFFFFFFFFFFFFBE
:10421000FFFFFFFFFFFFFF914800000000002000AC
:104220000000004891FFFFFFFFFFFFFFFFFFFFFFC0
:10423000FFFFFFFFFFFFFFFFFFFFFFFFFFFFFFFF8E
:10424000FFFFFFFFFFFFFFFFFFFFFFFFFFFFFFFF7E
:104250006C00206CB4F9FDFDFDFDFDFDFDFDF9B424
:104260006C00006DFFFFFFFFFFFFFFFFFFFFFFFF81
:10427000FFFFFFFFFFFFFFFFFFFFFFFFFFFFFFFF4E
:10428000FFFFFFFFFFFFFFFFFFB6000090FDFDFCFB
:10429000FCFCFCFCF8FCFCF8F8FCFCFCFDFDFD90D3
:1042A0000000B6FFFFFFFFFFFFFFFFFFFFFFFFFF65
:1042B000FFFFFFFFFFFFFFFFFFFFFFFFFFFFFFFF0E
:1042C000FFFFFFDA0044D9FDFCF8F8F8F8F8F8F839
:1042D000F8F8FCFCF8F8F8F8F8F8F8FCFDD8240039
:1042E000DBFFFFFFFFFFFFFFFFFFFFFFFFFFFFFF02
:1042F000FFFFFFFFFFFFFFFFFFFFFFFFFFFF2400A8
:10430000D9FDFCFCFCF8F8F8F8F8F8FCFCFCF8F82F
:10431000FCF8FCFCF8FCF8FCFCFCFDD90024FFFFD9
:10432000FFFFFFFFFFFFFFFFFFFFFFFFFFFFFFFF9D
:10433000FFFFFFFFFFFFFFFFDA00B0FDFCFCF8F816
:10434000FCF8F8F8F8F8F8F8F8F8F8FCF8FCFCFCD9
:10435000F8F8FCF8F8F8F8FCFD9000DAFFFFFFFF32
:10436000FFFFFFFFFFFFFFFFFFFFFFFFFFFFFFFF5D
:10437000FFFFFF6D00FDFCFCFCFCF8F8F8FCF8FC0E
:10438000F8F8F8F8F8F8F8F8FCFCF8F8F8FCF8FC9D
:10439000F8F8F8FCF8FDF90091FFFFFFFFFFFFFFC1
:1043A000FFFFFFFFFFFFFFFFFFFFFFFFFFFF2424D3
:1043B000FDFCF8FCF8F8F8F8F8F8F8FCFCF8F8F868
:1043C000F8F8F8F8F8F8F8F8FCF8F8F8F8F8F8F869
:1043D000F8FCFCFD2448FFFFFFFFFFFFFFFFFFFF8E
:1043E000FFFFFFFFFFFFFFFFFF2468FDF8FCF8F869
:1043F000F8F8F8F8F8F8F8FCFCF8F8F8F8F8F8F835
:10440000F8F8F8FCF8F8F8F8F8FCF8F8F8F8FCFC1C
:10441000FD4824FFFFFFFFFFFFFFFFFFFFFFFFFF40
:10442000FFFFFFFF4848FDFCF8F8F8FCF8F8F8F843
:10443000F8F8F8F8F8F8F8F8F8F8F8F8F8F8F8F8FC
:10444000F8F8FCFCF8F8F8FCFCFCF8F8FCFD48482F
:10445000FFFFFFFFFFFFFFFFFFFFFFFFFFFFFF6DFE
:1044600024FDFCFCF8F8FCF8F8F8F8F8F8F8F8F88F
:10447000F8F8F8F8F8F8F8F8FCF8FCF8F8F8F8FCB0
:10448000FCFCFCF8F8F8F8FCFCFCFD2491FFFFFFB5
:10449000FFFFFFFFFFFFFFFFFFFFDA00FDFCF8F863
:1044A000F8F8F8F8F8F8F8F8F8F8F8F8F8F8F8F88C
:1044B000F8F8F8F8F8F8F8F8F8FCFDFDFCF8FCF866
:1044C000F8F8F8F8FCFCFCFD00DAFFFFFFFFFFFF47
:1044D000FFFFFFFFFFFF00FDFCFCFCF8F8FCF8F815
:1044E000F8F8F8F8F8F8F8F8F8F8F8F8F8F8F8F84C
:1044F000FCFCFCF8FD6C00006CFDFCF8F8F8FCF826
:10450000F8F8FCFCF900FFFFFFFFFFFFFFFFFFFFD4
:10451000FF24B0FCFCF8F8F8FCF8F8FCF8F8F8F820
:10452000F8F8F8F8F8F8F8F8F8F8F8F8F8FCFCFCFF
:10453000900000000090F8F8FCF8F8F8F8F8F8F8A7
:10454000FC9044FFFFFFFFFFFFFFFFFFDA20FDFCB1
:10455000F8F8F8F8F8F8FCF8F8F8F8F8F8F8F8F8D7
:10456000F8F8F8F8F8F8F8F8FCF8FCFD000000009E
:104570000000FDFCF8F8FCFCF8F8F8FCFCFD00DBA2
:10458000FFFFFFFFFFFFFFFF00D9FCFCF8F8F8F882
:10459000F8F8F8F8F8F8FCF8FCFCFCFCF8FCF8FC7F
:1045A000F8F8FCF8F8FCFCB0000000000000B0F8DF
:1045B000FCFCF8F8F8FCF8F8F8F8D900FFFFFFFF6A
:1045C000FFFFFFB644FDF8F8F8F8F8FCFCFCF8FC37
:1045D000F8FCFDF8D4B4F9FDFCF8F8F8F8F8F8F8B0
:1045E000F8FCFD6800000000000068FDF8FCF8F829
:1045F000F8F8F8FCFCF8FD24DAFFFFFFFFFFFF00EE
:10460000D9FCF8F8F8F8F8F8FCFCF8F8FD90000090
:104610000000000090FDF8F8F8F8F8FCF8FCFD2424
:1046200000000000000024FDF8F8F8F8F8FCFCF8A1
:10463000F8F8FCD800FFFFFFFFFFFF00FDFCF8FCCF
:10464000F8F8F8F8F8F8FCFC48000000000000005A
:104650000068FCF8F8F8F8F8F8FCFD240000000009
:10466000000024FDF8FCF8F8F8F8F8FCF8FCF8FD78
:1046700000FFFFFFFFFF6D90FCFCF8F8F8F8F8F87A
:10468000FCFCF8F800000000000000000000FDFC49
:10469000FCF8FCF8F8F8FD4400000000000024FDE0
:1046A000F8F8F8F8F8FCF8F8FCF8F8FD906DFFFF62
:1046B000FFFF00FDF8F8F8FCF8F8F8F8F8FCFCFD4E
:1046C000000000D5FDFDB5000024FCFCFCF8FCF862
:1046D000F8F8FD6800000000000068FDF8F8F8F840
:1046E000F8F8F8FCFCFCFCF8FD00FFFFFFFF20FDE4
:1046F000F8F8FCF8FCF8F8F8F8FCF8F8F9B4FDFC68
:10470000F8FCF8F8B4FDFCF8F8F8F8F8F8F8FCB4A0
:10471000000000000000B0FCF8F8F8F8F8FCFCF825
:10472000F8F8FCF8FD00FFFFFF916CFCF8F8F8FCCE
:10473000FCFCFCFCF8F8F8F8FCFCFCF8F8F8FCFCD5
:10474000FCF8F8F8F8F8FCF8F8F8F8FD00000000BC
:104750000000FDF8F8F8F8FCFCF8FCF8FCFCF8FCAC
:10476000FC6CB1FFFF48B4FCF8F8F8F8FCFCFCF86E
:10477000F8F8F8F8F8F8FCF8F8F8F8F8F8F8F8F8B5
:10478000F8F8F8FCF8F8FCFC900000000090FCF849
:10479000F8F8F8FCF8F8F8F8F8F8F8F8FCB448FF7E
:1047A000FF00F9FCF8F8F8F8F8FCFCF8F8F8F8F86D
:1047B000F8F8FCFCF8F8F8F8F8F8F8F8F8F8F8F871
:1047C000FCF8F8FCFD8C00006CFDF8F8F8F8FCF83B
:1047D000F8F8F8F8F8F8F8F8FCF920FFFF00FDFC0D
:1047E000F8F8F8F8F8F8F8F8F8F8F8F8F8FCFCF841
:1047F000F8F8F8F8F8F8F8F8F8F8F8F8F8FCF8F835
:10480000FCFCFDFDFCF8FCF8F8F8FCF8F8F8F8F80A
:10481000F8F8F8F8FCFD00FFFF00FDFCF8F8F8F8E8
:10482000F8F8F8F8F8F8F8F8F8FCF8F8F8F8F8F804
:10483000F8F8F8F8F8F8F8F8F8FCF8FCFCF8FCFCE4
:10484000FCF8FCF8FCF8F8FCF8F8F8F8F8F8F8F8D8
:10485000FCFD00FFFF00FDFCF8F8FCF8F8F8F8F8A4
:10486000F8F8F8F8F8F8F8F8F8F8F8FCFCF8FCFCB8
:10487000F8F8F8F8FCF8F8F8F8FCF8FCF8F8FCFCA4
:10488000F8FCF8FCF8F8F8F8F8F8F8F8F8FD00FF8C
:10489000FF20FDF8FCFCF8F8F8F8F8F8F8F8F8F85C
:1048A000F8F8F8F8F8F8FCFCF8F8F8F8F8F8FCFC78
:1048B000FCFCF8F8F8F8F8F8F8FCF8F8FCFCF8F864
:1048C000F8F8F8F8F8F8F8F8FCFD00FFFF20FDFC18
:1048D000FCFCF8FCF8F8F8F8F8F8F8F8F8F8F8F84C
:1048E000F8F8FCFCF8F8F8F8F8F8FCFCFCF8FCF830
:1048F000F8F8FCF8F8F8F8FCF8F8F8F8F8F8F8F830
:10490000F8F8FCFCFCFD00FFFF00FDFCFCFCFCF8E3
:10491000F8F8F8F8FCFCF8F8F8F8F8F8F8F8F8F80F
:10492000F8F8F8F8F8F8F8FCFCF8F8F8FCF8FCFCF3
:10493000F8F8F8F8FCFCF8F8F8F8F8F8F8FCFCFCE3
:10494000F8FD00FFFF00FDFCF8FCF8F8F8F8F8FCB3
:10495000FCFCFCF8F8F8F8F8F8FCF8F8F8F8F8F8C7
:10496000F8F8F8F8F8F8F8F8F8F8FCFCF8FCF8F8BB
:10497000F8F8F8FCF8F8F8F8F8F8F8FCFCFD00FF97
:10498000FF00FDFCFCF8F8F8F8F8FCF8FCFDD8FD99
:10499000F8FCF8F8FCF8FCFCF8FCFCF8F8F8F8F87F
:1049A000F8F8F8F8F8F8F8F8FCF8FCFCF8F9FDF875
:1049B000FCF8F8F8FCF8FCF8FCFD00FFFF00F9F843
:1049C000F8F8F8FCFCFCFCFD90000000F8F8FCF89E
:1049D000F8F8F8F8F8F8FCFCF8F8F8F8F8F8F8F84F
:1049E000F8F8F8F8F8F8FD6C000024D9FCF8FCF8A9
:1049F000F8FCF8FCF8F920FFFF48B4FCFCF8F8FCE0
:104A0000F8FCFD6C0000000090FCF8F8F8F8F8F8ED
:104A1000F8F8F8F8F8F8FCF8FCF8F8F8F8F8F8F80E
:104A2000F8FCFD2000000000D9FCFCF8F8F8F8F8CC
:104A3000FCB448FFFF916CFDF8F8FCF8FCFCD400D6
:104A400000002068FCFCF8FCFCF8F8F8F8F8F8F82E
:104A5000F8F8F8F8FCFCF8F8F8FCFCFCF8FCFCD4DE
:104A60004800000000FDF8FCF8F8F8F8FD68B6FF13
:104A7000FFFF00FDFCFCF8FCF8FD2400000000D95D
:104A8000FDF8FCF8F8F8F8FCF8F8F8F8F8F8F8F899
:104A9000FCF8F8F8F8FCFCFCFCFCFCFD6C000000E9
:104AA00000B0FCF8F8F8F8F8FD00FFFFFFFF00FD8C
:104AB000FCF8FCF8FCFD0000000000008CFDFCFC94
:104AC000F8FCF8F8F8F8F8F8F8F8F8F8F8F8F8F862
:104AD000F8F8F8FCFCFCFD24000000000068FDFC78
:104AE000FCFCF8F8FD00FFFFFFFF6C90FCFCF8FCFD
:104AF000F8FD0000000000000024F9FDF8F8F8F8C7
:104B0000F8F8F8F8F8F8F8F8F8F8F8F8F8F8F8F825
:104B1000FDB00000000024000048FCF8FCF8F8F8A4
:104B20008C6DFFFFFFFFFF00FDF8F8F8F8FD200097
:104B300000FE240000000068FDFDFCF8F8F8F8F81D
:104B4000F8F8F8FCF8F8F8F8FCFCFDD524000000B3
:104B5000009090000090FCFCFCFCF8FD00FFFFFFC3
:104B6000FFFFFF00D8F8F8F8FCFCD948B4FDFD6C55
:104B7000000000000048D8FDFDFDF8F8F8F8F8F84E
:104B8000F8F8FDFDFDB0240000000000D9FDFD6C2B
:104B90006CFDF8F8F8FCFCD500FFFFFFFFFFFFD627
:104BA00024FDF8F8F8F8FCFCFCF8FCFDD920000026
:104BB0000000000048B0D9F9FDFDFDFDF9D58C4499
:104BC00000000000000068FDF8F8F8FCFCFCFCFCAC
:104BD000F8F8FD24DAFFFFFFFFFFFFFF00D9F8FC24
:104BE000FCFCF8F8F8FCF8F8F8FDB0000000000054
:104BF00000000000000000000000000000000000B5
:104C000044F9FDF8FCF8FCF8F8FCF8FCF8FCD900D5
:104C1000FFFFFFFFFFFFFFFFDA00FDFCFCF8F8FCE1
:104C2000FCFCF8F8FCF8FCFDB424000000000000D7
:104C30000000000000000000000068F9FDFCF8FC26
:104C4000F8F8F8FCFCF8FCFCFCFD00FBFFFFFFFFA4
:104C5000FFFFFFFFFF2490FCF8F8F8F8FCFCFCF8DD
:104C6000F8FCFCF8FCFDF9B0480000000000000072
:104C70000000246CB5FDFDFCFCFCFCFCF8FCF8F825
:104C8000F8F8FCF8FD9048FFFFFFFFFFFFFFFFFF74
:104C9000FFFF00F9F8F8F8F8FCF8F8F8F8F8FCF875
:104CA000F8F8F8FCFDFDFDF9D4D4D4D8F9FDFDFDEC
:104CB000F8F8F8FCF8FCFCFCF8F8F8F8F8FCF8FC5C
:104CC000F900FFFFFFFFFFFFFFFFFFFFFFFFDA001D
:104CD000FDF8F8F8F8F8F8F8F8F8F8F8F8F8F8FC4B
:104CE000F8FCFCFCFCFCFCFCFCF8F8F8F8F8F8F824
:104CF000FCFCF8F8F8F8F8F8FCF8FCFD00DBFFFF26
:104D0000FFFFFFFFFFFFFFFFFFFFFF8D24FDFCF80C
:104D1000FCF8F8F8F8F8F8F8F8F8F8F8F8F8F8F80F
:104D2000F8FCF8F8F8F8F8F8F8F8F8F8F8F8FCF8FB
:104D3000F8F8F8F8FCFCFD2491FFFFFFFFFFFFFFF0
:104D4000FFFFFFFFFFFFFFFF4848FDFCFCF8FCF8FA
:104D5000F8F8FCF8FCF8FCF8F8F8F8F8F8F8F8F8C7
:104D6000F8F8F8F8F8F8F8F8F8F8F8F8F8FCFCF8BB
:104D7000F8FD4848FFFFFFFFFFFFFFFFFFFFFFFFBA
:104D8000FFFFFFFFFF2448FDFCFCF8F8F8F8FCF8F3
:104D9000F8F8F8FCF8F8F8F8F8F8F8F8F8F8F8F88F
:104DA000F8F8F8F8F8F8F8FCFCF8F8FCFD4848FFCB
:104DB000FFFFFFFFFFFFFFFFFFFFFFFFFFFFFFFF03
:104DC000FFFF4824FDFCF8FCF8FCF8F8F8FCFCF8C0
:104DD000F8F8F8F8F8F8F8F8F8F8F8F8F8F8F8F853
:104DE000FCFCF8FCF8FCF8FD2048FFFFFFFFFFFF8C
:104DF000FFFFFFFFFFFFFFFFFFFFFFFFFFFFFF9131
:104E000000F9FCFCF8F8F8F8FCFCF8FCF8F8F8F805
:104E1000F8F8F8F8F8F8F8F8F8F8F8F8F8F8F8F812
:104E2000FCFCF90091FFFFFFFFFFFFFFFFFFFFFF0B
:104E3000FFFFFFFFFFFFFFFFFFFFFFFFDA0090FD17
:104E4000FCF8F8FCF8F8F8F8F8F8F8F8F8F8FCFCD2
:104E5000F8FCF8F8F8F8F8F8FCFCF8FDFD9000FA1A
:104E6000FFFFFFFFFFFFFFFFFFFFFFFFFFFFFFFF52
:104E7000FFFFFFFFFFFFFFFFFFFF4400D5FDFCF832
:104E8000FCF8F8F8F8F8F8F8F8FCFCFCF8F8F8F892
:104E9000F8F8F8F8F8FCFDD90048FFFFFFFFFFFF26
:104EA000FFFFFFFFFFFFFFFFFFFFFFFFFFFFFFFF12
:104EB000FFFFFFFFFFFFFFDB0024D8FDFDF8F8F840
:104EC000F8F8F8F8FCFCFCFCFCFCF8F8F8F8F8F84A
:104ED000FDD82400DBFFFFFFFFFFFFFFFFFFFFFF09
:104EE000FFFFFFFFFFFFFFFFFFFFFFFFFFFFFFFFD2
:104EF000FFFFFFFFFFDA000090FDFDFDFCFCFCFC66
:104F0000FCFCFCFCFCFCFCFCFDFDF98C0000DAFF69
:104F1000FFFFFFFFFFFFFFFFFFFFFFFFFFFFFFFFA1
:104F2000FFFFFFFFFFFFFFFFFFFFFFFFFFFFFFFF91
:104F3000FFFFFFFF6D000068B4F9FDFDFDFDFDFD05
:104F4000FDFDF8B46800006DFFFFFFFFFFFFFFFFEE
:104F5000FFFFFFFFFFFFFFFFFFFFFFFFFFFFFFFF61
:104F6000FFFFFFFFFFFFFFFFFFFFFFFFFFFFFFFF51
:104F7000FFFFFFB1482000000000000000002448AF
:104F8000B1FFFFFFFFFFFFFFFFFFFFFFFFFFFFFF7F
:104F9000FFFFFFFFFFFFFFFFFFFFFFFFFFFFFFFF21
:104FA000FFFFFFFFFFFFFFFFFFFFFFFFFFFFFFFF11
:104FB000FFFFFFFFFFFFFFFFFFFFFFFFFFFFFFFF01
:104FC000FFFFFFFFFFFFFFFFFFFFFFFFFFFFFFFFF1
:104FD000FFFFFFFFFFFFFFFFFFFFFFFFFFFFFFFFE1
:104FE000FFFFFFFFFFFFFFFFFFFFFFFFFFFFFFFFD1
:104FF000FFFFFFFFFFFFFFFFFFFFFFFFFFFFFFFFC1
:10500000FFFFFFFFFFFFFFFFFFFFFFFFFFFFFFFFB0
:10501000FFFFFFFFFFFFFFFFFFFFFFFFFFFFFFFFA0
:10502000FFFFFFFFFFFFFFFFFFFFFFFFFFFFFFFF90
:10503000FFFFFFFFFFFFFFFFFFFFFFFFFFFFFFFF80
:10504000FFFFFFFFFFFFFFFFFFFFFFFFFFFFFFFF70
:10505000FFFFFFFFFFFFFFFFFFFFFFFFFFFFFFFF60
:10506000FFFFFFFFFFFFFFDBB6B6B6B6DBFFFFFFBC
:10507000FFFFFFFFFFFFFFFFFFFFFFFFFFFFFFFF40
:10508000FFFFFFFFFFFFFFFFFFFFFFFFFFFFFFFF30
:10509000FFFFFFFFFFFFFFFFFFFFFFFFFFFFFF928D
:1050A00024000000000000000000002492FFFFFF29
:1050B000FFFFFFFFFFFFFFFFFFFFFFFFFFFFFFFF00
:1050C000FFFFFFFFFFFFFFFFFFFFFFFFFFFFFFFFF0
:1050D000FFFFFFFFFFFFFFFF920000000000000046
:1050E000000000000000000000000092FFFFFFFF32
:1050F000FFFFFFFFFFFFFFFFFFFFFFFFFFFFFFFFC0
:10510000FFFFFFFFFFFFFFFFFFFFFFFFFFFFFFFFAF
:10511000FFFF6D00000000006CB4FCFCFCFCFCFC1C
:10512000FCFCB46C00000000006DFFFFFFFFFFFF00
:10513000FFFFFFFFFFFFFFFFFFFFFFFFFFFFFFFF7F
:10514000FFFFFFFFFFFFFFFFFFFFFFFFB6000000B5
:10515000006CFCFCFCFCFCFCFCFCFCFCFCFCFCFC1B
:10516000FCFC6C00000000B6FFFFFFFFFFFFFFFF2D
:10517000FFFFFFFFFFFFFFFFFFFFFFFFFFFFFFFF3F
:10518000FFFFFFFFFFFFFF4900000090FCFCFCFC5D
:10519000FCFCFCFCFCFCFCFCFCFCFCFCFCFCFCFC4F
:1051A0009000000049FFFFFFFFFFFFFFFFFFFFFF31
:1051B000FFFFFFFFFFFFFFFFFFFFFFFFFFFFFFFFFF
:1051C000FFFF00000048FCFCFCFCFCFCFCFCFCFCC1
:1051D000FCFCFCFCFCFCFCFCFCFCFCFCFCFC4800BF
:1051E0000000FFFFFFFFFFFFFFFFFFFFFFFFFFFFCD
:1051F000FFFFFFFFFFFFFFFFFFFFFFFFFF000000BC
:10520000B4FCFCD8D8FCFCFCFCFCFCFCFCFCFCFC6E
:10521000FCFCFCFCFCFCFCD8D8FCFCB4000000FF4F
:10522000FFFFFFFFFFFFFFFFFFFFFFFFFFFFFFFF8E
:10523000FFFFFFFFFFFFFFFF000000FCFCFCFC0086
:105240000090FCFCFCFCFCFCFCFCFCFCFCFCFCFC06
:10525000FCFC900000FCFCFCFC000000FFFFFFFFDA
:10526000FFFFFFFFFFFFFFFFFFFFFFFFFFFFFFFF4E
:10527000FFFFFF000000FCFCFCFCFC24000090FC95
:10528000FCFCFCFCFCFCFCFCFCFCFCFCFC900000C2
:1052900024FCFCFCFCFC000000FFFFFFFFFFFFFF05
:1052A000FFFFFFFFFFFFFFFFFFFFFFFFFFFF2400E8
:1052B00000FCFCFCFCFCFCFC2400006CFCFCFCFC8A
:1052C000FCFCFCFCFCFCFCFC6C000024FCFCFCFC7E
:1052D000FCFCFC000024FFFFFFFFFFFFFFFFFFFFC0
:1052E000FFFFFFFFFFFFFFFFFF920000D8FCFCFC69
:1052F000FCFCFCFCFC2400006CFCFCFCFCFCFCFC4E
:10530000FCFCFC6C000024FCFCFCFCFCFCFCFCD861
:10531000000092FFFFFFFFFFFFFFFFFFFFFFFFFF08
:10532000FFFFFFFFFF00006CFCFCFCFCFCFCFCFC36
:10533000FCB40000006CFCFCFCFCFCFCFCFC6C0005
:105340000000B4FCFCFCFCFCFCFCFCFC6C0000FF62
:10535000FFFFFFFFFFFFFFFFFFFFFFFFFFFFFFFF5D
:10536000490000FCFCFCFCFCFCFCFCFCFC0000001C
:1053700000006CFCFCFCFCFCFC6C0000000000FC71
:10538000FCFCFCFCFCFCFCFCFC000049FFFFFFFFFC
:10539000FFFFFFFFFFFFFFFFFFFFFFFF0000B4FC69
:1053A000FCFCFCFCFCFCFCFC6C0000000000006C45
:1053B000FCFCFCFC6C0000000000006CFCFCFCFC35
:1053C000FCFCFCFCFCB40000FFFFFFFFFFFFFFFF45
:1053D000FFFFFFFFFFFFFF490000FCFCFCFCFCFCA3
:1053E000FCFCFCFC00000000000000006CFCFC6CFD
:1053F0000000000000000000FCFCFCFCFCFCFCFCCD
:10540000FCFC000049FFFFFFFFFFFFFFFFFFFFFF66
:10541000FFFFFF0000B4FCFCFCFCFCFCFCFCFCFC03
:10542000000000000000000000D8D80000000000CC
:1054300000000000FCFCFCFCFCFCFCFCFCFCB400E0
:1054400000FFFFFFFFFFFFFFFFFFFFFFFFFFB600B3
:1054500000FCFCFCFCFCFCFCFCFCFCFC0000000078
:1054600000006C4800FCFC00486C000000000000DC
:10547000FCFCFCFCFCFCFCFCFCFCFC0000B6FFFFA4
:10548000FFFFFFFFFFFFFFFFFFFF240048FCFCFCC6
:10549000FCFCFCFCFCFCFCFC00000000000048FCE8
:1054A000FCFCFCFCFC48000000000000FCFCFCFCD8
:1054B000FCFCFCFCFCFCFC480024FFFFFFFFFFFFA2
:1054C000FFFFFFFFFFFF0000B4FCFCFCFCFCFCFC4A
:1054D000FCFCFCFC0000000000006CFCFCFCFCFC84
:1054E000FC6C000000000000FCFCFCFCFCFCFCFC74
:1054F000FCFCFCB40000FFFFFFFFFFFFFFFFFFFF0E
:10550000FFFF0000FCFCFCFCFCFCFCFCFCFCFCFCCD
:10551000240000000000B4FCFCFCFCFCFCB4000017
:1055200000000024FCFCFCFCFCFCFCFCFCFCFCFC87
:105530000000FFFFFFFFFFFFFFFFFFFFFFB60000C0
:10554000FCFCFCFCFCFCFCFCFCFCFCFC90000000FB
:105550000000FCFCFCFCFCFCFCFC000000000090DB
:10556000FCFCFCFCFCFCFCFCFCFCFCFC0000B6FFB6
:10557000FFFFFFFFFFFFFFFFFF920024FCFCFCFC8E
:10558000FCFCFCFCFCFCFCFCFC0000000090FCFCB7
:10559000FCFCFCFCFCFC9000000000FCFCFCFCFCA7
:1055A000FCFCFCFCFCFCFCFC240092FFFFFFFFFF6A
:1055B000FFFFFFFFFF6D0024FCFCFCFCFCFCFCFC7F
:1055C000FCFCFCFCFCFC24006CFCFCFCFCFCFCFC7F
:1055D000FCFCFC6C0024FCFCFCFCFCFCFCFCFCFC6F
:1055E000FCFCFCFC24006DFFFFFFFFFFFFFFFFFF43
:1055F000FF6D0048FCFCFCFCFCFCFCFCFCFCFCFC27
:10560000FCFCFCFCFCFCFCFCFCFCFCFCFCFCFCFCDA
:10561000FCFCFCFCFCFCFCFCFCFCFCFCFCFCFCFCCA
:1056200048006DFFFFFFFFFFFFFFFFFFFF6D00481A
:10563000FCFCFCFCFCFCFCFCFCFCFCFCFCFCFCFCAA
:10564000FCFCFCFCFCFCFCFCFCFCFCFCFCFCFCFC9A
:10565000FCFCFCFCFCFCFCFCFCFCFCFC48006DFFC6
:10566000FFFFFFFFFFFFFFFFFF6D0024FCFCFCFCC2
:10567000FCFCFCFCFCFCFCFCFCFCFCFCFCFCFCFC6A
:10568000FCFCFCFCFCFCFCFCFCFCFCFCFCFCFCFC5A
:10569000FCFCFCFCFCFCFCFC24006DFFFFFFFFFF9E
:1056A000FFFFFFFFFF920024FCFCFCFCFCFCFCFC69
:1056B000FCFCFCFCFCFCFCFCFCFCFCFCFCFCFCFC2A
:1056C000FCFCFCFCFCFCFCFCFCFCFCFCFCFCFCFC1A
:1056D000FCFCFCFC240092FFFFFFFFFFFFFFFFFF2D
:1056E000FFB60000FCFCFCFCFCFCFCFCFCFCFCFC35
:1056F000FCFCFCFCFCFCFCFCFCFCFCFCFCFCFCFCEA
:10570000FCFCFCFCFCFCFCFCFCFCFCFCFCFCFCFCD9
:105710000000B6FFFFFFFFFFFFFFFFFFFFFF0000DE
:10572000FCFCFCFCFCFCFCFCFCFCFCFCFCFCFCFCB9
:10573000FCFCB4906C48486C90B4FCFCFCFCFCFC99
:10574000FCFCFCFCFCFCFCFCFCFCFCFC0000FFFF8B
:10575000FFFFFFFFFFFFFFFFFFFF0000B4FCFCFCAB
:10576000FCFCFCFCFCFCFCFCFCFCD8480000000041
:10577000000000000000000048D8FCFCFCFCFCFC21
:10578000FCFCFCFCFCFCFCB40000FFFFFFFFFFFF87
:10579000FFFFFFFFFFFF240048FCFCFCFCFCFCFCBF
:1057A000FCFCFCFCB400000000000000240000240D
:1057B00000000000000000B4FCFCFCFCFCFCFCFC55
:1057C000FCFCFC480024FFFFFFFFFFFFFFFFFFFF83
:1057D000FFFFB60000FCFCFCFCFCFCFCFCFCFC003D
:1057E0000000000000FCFCFCFCFCFCFCFCFCFCFCE5
:1057F0000000000000FCFCFCFCFCFCFCFCFCFC00D1
:1058000000B6FFFFFFFFFFFFFFFFFFFFFFFFFF00EF
:1058100000B4FCFCFCFCFCFCFCB400000024FCFC20
:10582000FCFCFCFCFCFCFCFCFCFCFCFCFCFC24008C
:105830000000B4FCFCFCFCFCFCFCB40000FFFFFF1F
:10584000FFFFFFFFFFFFFFFFFFFFFF490000FCFC22
:10585000FC48006C90000000B4FCFCFCFCFCFCFC70
:10586000FCFCFCFCFCFCFCFCFCFCFCD800000090FC
:10587000480090FCFCFC000049FFFFFFFFFFFFFF1A
:10588000FFFFFFFFFFFFFFFF0000B4FCFC4800002C
:10589000000024FCFCFCFCFCFCFCFCFCFCFCFCFC18
:1058A000FCFCFCFCFCFCFCFCFC240000000090FC6C
:1058B000FCB40000FFFFFFFFFFFFFFFFFFFFFFFF44
:1058C000FFFFFFFF490000FCFCFC48000000FCFC5F
:1058D000FCFCFCFCFCFCFCFCFCFCFCFCFCFCFCFC08
:1058E000FCFCFCFCFCFC00000090FCFCFC00004903
:1058F000FFFFFFFFFFFFFFFFFFFFFFFFFFFFFFFFB8
:10590000FF00006CFCFCFC4800006CFCFCFCFCFC98
:10591000FCFCFCFCFCFCFCFCFCFCFCFCFCFCFCFCC7
:10592000FC24000090FCFCFC6C0000FFFFFFFFFF6C
:10593000FFFFFFFFFFFFFFFFFFFFFFFFFF920000E2
:10594000D8FCFCFC480048FCFCFCFCFCFCFCFCFC1F
:10595000FCFCFCFCFCFCFCFCFCFCFCFCFC000090EB
:10596000FCFCFCD8000092FFFFFFFFFFFFFFFFFFE2
:10597000FFFFFFFFFFFFFFFFFFFF240000FCFCFC19
:10598000FCFCFCFCFCFCFCFCFCFCFCFCFCFCFCFC57
:10599000FCFCFCFCFCFCFCFCFCFCFCFCFCFCFC0043
:1059A0000024FFFFFFFFFFFFFFFFFFFFFFFFFFFFE1
:1059B000FFFFFFFFFFFFFF000000FCFCFCFCFCFC06
:1059C000FCFCFCFCFCFCFCFCFCFCFCFCFCFCFCFC17
:1059D000FCFCFCFCFCFCFCFCFCFC000000FFFFFFF2
:1059E000FFFFFFFFFFFFFFFFFFFFFFFFFFFFFFFFC7
:1059F000FFFFFFFF000000FCFCFCFCFCFCFCFCFCCF
:105A0000FCFCFCFCFCFCFCFCFCFCFCFCFCFCFCFCD6
:105A1000FCFCFCFCFC000000FFFFFFFFFFFFFFFFA2
:105A2000FFFFFFFFFFFFFFFFFFFFFFFFFFFFFFFF86
:105A3000FF000000B4FCFCFCFCFCFCFCFCFCFCFCDF
:105A4000FCFCFCFCFCFCFCFCFCFCFCFCFCFCFCB4DE
:105A5000000000FFFFFFFFFFFFFFFFFFFFFFFFFF53
:105A6000FFFFFFFFFFFFFFFFFFFFFFFFFFFF000044
:105A70000048FCFCFCFCFCFCFCFCFCFCFCFCFCFC16
:105A8000FCFCFCFCFCFCFCFCFCFC48000000FFFFF8
:105A9000FFFFFFFFFFFFFFFFFFFFFFFFFFFFFFFF16
:105AA000FFFFFFFFFFFFFFFFFFFFFF490000009028
:105AB000FCFCFCFCFCFCFCFCFCFCFCFCFCFCFCFC26
:105AC000FCFCFCFC9000000049FFFFFFFFFFFFFF14
:105AD000FFFFFFFFFFFFFFFFFFFFFFFFFFFFFFFFD6
